{
	"ValueFind.sol": {
		"EtherConverter": {
			"abi": [
				{
					"inputs": [],
					"name": "getBalanceInEther",
					"outputs": [
						{
							"internalType": "uint256",
							"name": "",
							"type": "uint256"
						}
					],
					"stateMutability": "view",
					"type": "function"
				},
				{
					"inputs": [],
					"name": "getBalanceInGwei",
					"outputs": [
						{
							"internalType": "uint256",
							"name": "",
							"type": "uint256"
						}
					],
					"stateMutability": "view",
					"type": "function"
				},
				{
					"inputs": [],
					"name": "getBalanceInWei",
					"outputs": [
						{
							"internalType": "uint256",
							"name": "",
							"type": "uint256"
						}
					],
					"stateMutability": "view",
					"type": "function"
				},
				{
					"stateMutability": "payable",
					"type": "receive"
				}
			],
			"devdoc": {
				"kind": "dev",
				"methods": {},
				"version": 1
			},
			"evm": {
				"assembly": "    /* \"ValueFind.sol\":59:469  contract EtherConverter{... */\n  mstore(0x40, 0x80)\n  callvalue\n  dup1\n  iszero\n  tag_1\n  jumpi\n  0x00\n  dup1\n  revert\ntag_1:\n  pop\n  dataSize(sub_0)\n  dup1\n  dataOffset(sub_0)\n  0x00\n  codecopy\n  0x00\n  return\nstop\n\nsub_0: assembly {\n        /* \"ValueFind.sol\":59:469  contract EtherConverter{... */\n      mstore(0x40, 0x80)\n      jumpi(tag_1, lt(calldatasize, 0x04))\n      shr(0xe0, calldataload(0x00))\n      dup1\n      0x18b95fbf\n      eq\n      tag_3\n      jumpi\n      dup1\n      0x1fbd7a1a\n      eq\n      tag_4\n      jumpi\n      dup1\n      0x359c09b5\n      eq\n      tag_5\n      jumpi\n      jump(tag_2)\n    tag_1:\n      jumpi(tag_2, calldatasize)\n      stop\n    tag_2:\n      0x00\n      dup1\n      revert\n        /* \"ValueFind.sol\":133:236  function getBalanceInWei() public view returns (uint256){... */\n    tag_3:\n      callvalue\n      dup1\n      iszero\n      tag_8\n      jumpi\n      0x00\n      dup1\n      revert\n    tag_8:\n      pop\n      tag_9\n      tag_10\n      jump\t// in\n    tag_9:\n      mload(0x40)\n      tag_11\n      swap2\n      swap1\n      tag_12\n      jump\t// in\n    tag_11:\n      mload(0x40)\n      dup1\n      swap2\n      sub\n      swap1\n      return\n        /* \"ValueFind.sol\":357:464  function getBalanceInGwei() public view returns(uint256){... */\n    tag_4:\n      callvalue\n      dup1\n      iszero\n      tag_13\n      jumpi\n      0x00\n      dup1\n      revert\n    tag_13:\n      pop\n      tag_14\n      tag_15\n      jump\t// in\n    tag_14:\n      mload(0x40)\n      tag_16\n      swap2\n      swap1\n      tag_12\n      jump\t// in\n    tag_16:\n      mload(0x40)\n      dup1\n      swap2\n      sub\n      swap1\n      return\n        /* \"ValueFind.sol\":242:351  function getBalanceInEther() public view returns(uint256){... */\n    tag_5:\n      callvalue\n      dup1\n      iszero\n      tag_17\n      jumpi\n      0x00\n      dup1\n      revert\n    tag_17:\n      pop\n      tag_18\n      tag_19\n      jump\t// in\n    tag_18:\n      mload(0x40)\n      tag_20\n      swap2\n      swap1\n      tag_12\n      jump\t// in\n    tag_20:\n      mload(0x40)\n      dup1\n      swap2\n      sub\n      swap1\n      return\n        /* \"ValueFind.sol\":133:236  function getBalanceInWei() public view returns (uint256){... */\n    tag_10:\n        /* \"ValueFind.sol\":181:188  uint256 */\n      0x00\n        /* \"ValueFind.sol\":207:228  address(this).balance */\n      selfbalance\n        /* \"ValueFind.sol\":200:228  return address(this).balance */\n      swap1\n      pop\n        /* \"ValueFind.sol\":133:236  function getBalanceInWei() public view returns (uint256){... */\n      swap1\n      jump\t// out\n        /* \"ValueFind.sol\":357:464  function getBalanceInGwei() public view returns(uint256){... */\n    tag_15:\n        /* \"ValueFind.sol\":405:412  uint256 */\n      0x00\n        /* \"ValueFind.sol\":450:456  1 gwei */\n      0x3b9aca00\n        /* \"ValueFind.sol\":431:448  getBalanceInWei() */\n      tag_23\n        /* \"ValueFind.sol\":431:446  getBalanceInWei */\n      tag_10\n        /* \"ValueFind.sol\":431:448  getBalanceInWei() */\n      jump\t// in\n    tag_23:\n        /* \"ValueFind.sol\":431:456  getBalanceInWei() /1 gwei */\n      tag_24\n      swap2\n      swap1\n      tag_25\n      jump\t// in\n    tag_24:\n        /* \"ValueFind.sol\":424:456  return getBalanceInWei() /1 gwei */\n      swap1\n      pop\n        /* \"ValueFind.sol\":357:464  function getBalanceInGwei() public view returns(uint256){... */\n      swap1\n      jump\t// out\n        /* \"ValueFind.sol\":242:351  function getBalanceInEther() public view returns(uint256){... */\n    tag_19:\n        /* \"ValueFind.sol\":291:298  uint256 */\n      0x00\n        /* \"ValueFind.sol\":336:343  1 ether */\n      0x0de0b6b3a7640000\n        /* \"ValueFind.sol\":317:334  getBalanceInWei() */\n      tag_27\n        /* \"ValueFind.sol\":317:332  getBalanceInWei */\n      tag_10\n        /* \"ValueFind.sol\":317:334  getBalanceInWei() */\n      jump\t// in\n    tag_27:\n        /* \"ValueFind.sol\":317:343  getBalanceInWei()/ 1 ether */\n      tag_28\n      swap2\n      swap1\n      tag_25\n      jump\t// in\n    tag_28:\n        /* \"ValueFind.sol\":310:343  return getBalanceInWei()/ 1 ether */\n      swap1\n      pop\n        /* \"ValueFind.sol\":242:351  function getBalanceInEther() public view returns(uint256){... */\n      swap1\n      jump\t// out\n        /* \"#utility.yul\":7:84   */\n    tag_29:\n        /* \"#utility.yul\":44:51   */\n      0x00\n        /* \"#utility.yul\":73:78   */\n      dup2\n        /* \"#utility.yul\":62:78   */\n      swap1\n      pop\n        /* \"#utility.yul\":7:84   */\n      swap2\n      swap1\n      pop\n      jump\t// out\n        /* \"#utility.yul\":90:208   */\n    tag_30:\n        /* \"#utility.yul\":177:201   */\n      tag_36\n        /* \"#utility.yul\":195:200   */\n      dup2\n        /* \"#utility.yul\":177:201   */\n      tag_29\n      jump\t// in\n    tag_36:\n        /* \"#utility.yul\":172:175   */\n      dup3\n        /* \"#utility.yul\":165:202   */\n      mstore\n        /* \"#utility.yul\":90:208   */\n      pop\n      pop\n      jump\t// out\n        /* \"#utility.yul\":214:436   */\n    tag_12:\n        /* \"#utility.yul\":307:311   */\n      0x00\n        /* \"#utility.yul\":345:347   */\n      0x20\n        /* \"#utility.yul\":334:343   */\n      dup3\n        /* \"#utility.yul\":330:348   */\n      add\n        /* \"#utility.yul\":322:348   */\n      swap1\n      pop\n        /* \"#utility.yul\":358:429   */\n      tag_38\n        /* \"#utility.yul\":426:427   */\n      0x00\n        /* \"#utility.yul\":415:424   */\n      dup4\n        /* \"#utility.yul\":411:428   */\n      add\n        /* \"#utility.yul\":402:408   */\n      dup5\n        /* \"#utility.yul\":358:429   */\n      tag_30\n      jump\t// in\n    tag_38:\n        /* \"#utility.yul\":214:436   */\n      swap3\n      swap2\n      pop\n      pop\n      jump\t// out\n        /* \"#utility.yul\":442:622   */\n    tag_31:\n        /* \"#utility.yul\":490:567   */\n      0x4e487b7100000000000000000000000000000000000000000000000000000000\n        /* \"#utility.yul\":487:488   */\n      0x00\n        /* \"#utility.yul\":480:568   */\n      mstore\n        /* \"#utility.yul\":587:591   */\n      0x12\n        /* \"#utility.yul\":584:585   */\n      0x04\n        /* \"#utility.yul\":577:592   */\n      mstore\n        /* \"#utility.yul\":611:615   */\n      0x24\n        /* \"#utility.yul\":608:609   */\n      0x00\n        /* \"#utility.yul\":601:616   */\n      revert\n        /* \"#utility.yul\":814:999   */\n    tag_25:\n        /* \"#utility.yul\":854:855   */\n      0x00\n        /* \"#utility.yul\":871:891   */\n      tag_42\n        /* \"#utility.yul\":889:890   */\n      dup3\n        /* \"#utility.yul\":871:891   */\n      tag_29\n      jump\t// in\n    tag_42:\n        /* \"#utility.yul\":866:891   */\n      swap2\n      pop\n        /* \"#utility.yul\":905:925   */\n      tag_43\n        /* \"#utility.yul\":923:924   */\n      dup4\n        /* \"#utility.yul\":905:925   */\n      tag_29\n      jump\t// in\n    tag_43:\n        /* \"#utility.yul\":900:925   */\n      swap3\n      pop\n        /* \"#utility.yul\":944:945   */\n      dup3\n        /* \"#utility.yul\":934:969   */\n      tag_44\n      jumpi\n        /* \"#utility.yul\":949:967   */\n      tag_45\n      tag_31\n      jump\t// in\n    tag_45:\n        /* \"#utility.yul\":934:969   */\n    tag_44:\n        /* \"#utility.yul\":991:992   */\n      dup3\n        /* \"#utility.yul\":988:989   */\n      dup3\n        /* \"#utility.yul\":984:993   */\n      div\n        /* \"#utility.yul\":979:993   */\n      swap1\n      pop\n        /* \"#utility.yul\":814:999   */\n      swap3\n      swap2\n      pop\n      pop\n      jump\t// out\n\n    auxdata: 0xa26469706673582212202394158a9f29117787c42bddbe708c8757dbbc111a7e6f55199ba535063e4b5764736f6c63430008120033\n}\n",
				"bytecode": {
					"linkReferences": {},
					"object": "608060405234801561001057600080fd5b506101d7806100206000396000f3fe6080604052600436106100385760003560e01c806318b95fbf146100445780631fbd7a1a1461006f578063359c09b51461009a5761003f565b3661003f57005b600080fd5b34801561005057600080fd5b506100596100c5565b6040516100669190610126565b60405180910390f35b34801561007b57600080fd5b506100846100cd565b6040516100919190610126565b60405180910390f35b3480156100a657600080fd5b506100af6100eb565b6040516100bc9190610126565b60405180910390f35b600047905090565b6000633b9aca006100dc6100c5565b6100e69190610170565b905090565b6000670de0b6b3a76400006100fe6100c5565b6101089190610170565b905090565b6000819050919050565b6101208161010d565b82525050565b600060208201905061013b6000830184610117565b92915050565b7f4e487b7100000000000000000000000000000000000000000000000000000000600052601260045260246000fd5b600061017b8261010d565b91506101868361010d565b92508261019657610195610141565b5b82820490509291505056fea26469706673582212202394158a9f29117787c42bddbe708c8757dbbc111a7e6f55199ba535063e4b5764736f6c63430008120033",
					"opcodes": "PUSH1 0x80 PUSH1 0x40 MSTORE CALLVALUE DUP1 ISZERO PUSH2 0x10 JUMPI PUSH1 0x0 DUP1 REVERT JUMPDEST POP PUSH2 0x1D7 DUP1 PUSH2 0x20 PUSH1 0x0 CODECOPY PUSH1 0x0 RETURN INVALID PUSH1 0x80 PUSH1 0x40 MSTORE PUSH1 0x4 CALLDATASIZE LT PUSH2 0x38 JUMPI PUSH1 0x0 CALLDATALOAD PUSH1 0xE0 SHR DUP1 PUSH4 0x18B95FBF EQ PUSH2 0x44 JUMPI DUP1 PUSH4 0x1FBD7A1A EQ PUSH2 0x6F JUMPI DUP1 PUSH4 0x359C09B5 EQ PUSH2 0x9A JUMPI PUSH2 0x3F JUMP JUMPDEST CALLDATASIZE PUSH2 0x3F JUMPI STOP JUMPDEST PUSH1 0x0 DUP1 REVERT JUMPDEST CALLVALUE DUP1 ISZERO PUSH2 0x50 JUMPI PUSH1 0x0 DUP1 REVERT JUMPDEST POP PUSH2 0x59 PUSH2 0xC5 JUMP JUMPDEST PUSH1 0x40 MLOAD PUSH2 0x66 SWAP2 SWAP1 PUSH2 0x126 JUMP JUMPDEST PUSH1 0x40 MLOAD DUP1 SWAP2 SUB SWAP1 RETURN JUMPDEST CALLVALUE DUP1 ISZERO PUSH2 0x7B JUMPI PUSH1 0x0 DUP1 REVERT JUMPDEST POP PUSH2 0x84 PUSH2 0xCD JUMP JUMPDEST PUSH1 0x40 MLOAD PUSH2 0x91 SWAP2 SWAP1 PUSH2 0x126 JUMP JUMPDEST PUSH1 0x40 MLOAD DUP1 SWAP2 SUB SWAP1 RETURN JUMPDEST CALLVALUE DUP1 ISZERO PUSH2 0xA6 JUMPI PUSH1 0x0 DUP1 REVERT JUMPDEST POP PUSH2 0xAF PUSH2 0xEB JUMP JUMPDEST PUSH1 0x40 MLOAD PUSH2 0xBC SWAP2 SWAP1 PUSH2 0x126 JUMP JUMPDEST PUSH1 0x40 MLOAD DUP1 SWAP2 SUB SWAP1 RETURN JUMPDEST PUSH1 0x0 SELFBALANCE SWAP1 POP SWAP1 JUMP JUMPDEST PUSH1 0x0 PUSH4 0x3B9ACA00 PUSH2 0xDC PUSH2 0xC5 JUMP JUMPDEST PUSH2 0xE6 SWAP2 SWAP1 PUSH2 0x170 JUMP JUMPDEST SWAP1 POP SWAP1 JUMP JUMPDEST PUSH1 0x0 PUSH8 0xDE0B6B3A7640000 PUSH2 0xFE PUSH2 0xC5 JUMP JUMPDEST PUSH2 0x108 SWAP2 SWAP1 PUSH2 0x170 JUMP JUMPDEST SWAP1 POP SWAP1 JUMP JUMPDEST PUSH1 0x0 DUP2 SWAP1 POP SWAP2 SWAP1 POP JUMP JUMPDEST PUSH2 0x120 DUP2 PUSH2 0x10D JUMP JUMPDEST DUP3 MSTORE POP POP JUMP JUMPDEST PUSH1 0x0 PUSH1 0x20 DUP3 ADD SWAP1 POP PUSH2 0x13B PUSH1 0x0 DUP4 ADD DUP5 PUSH2 0x117 JUMP JUMPDEST SWAP3 SWAP2 POP POP JUMP JUMPDEST PUSH32 0x4E487B7100000000000000000000000000000000000000000000000000000000 PUSH1 0x0 MSTORE PUSH1 0x12 PUSH1 0x4 MSTORE PUSH1 0x24 PUSH1 0x0 REVERT JUMPDEST PUSH1 0x0 PUSH2 0x17B DUP3 PUSH2 0x10D JUMP JUMPDEST SWAP2 POP PUSH2 0x186 DUP4 PUSH2 0x10D JUMP JUMPDEST SWAP3 POP DUP3 PUSH2 0x196 JUMPI PUSH2 0x195 PUSH2 0x141 JUMP JUMPDEST JUMPDEST DUP3 DUP3 DIV SWAP1 POP SWAP3 SWAP2 POP POP JUMP INVALID LOG2 PUSH5 0x6970667358 0x22 SLT KECCAK256 0x23 SWAP5 ISZERO DUP11 SWAP16 0x29 GT PUSH24 0x87C42BDDBE708C8757DBBC111A7E6F55199BA535063E4B57 PUSH5 0x736F6C6343 STOP ADDMOD SLT STOP CALLER "
				},
				"gasEstimates": {
					"creation": {
						"codeDepositCost": "94200",
						"executionCost": "141",
						"totalCost": "94341"
					},
					"external": {
						"getBalanceInEther()": "infinite",
						"getBalanceInGwei()": "infinite",
						"getBalanceInWei()": "317"
					}
				},
				"methodIdentifiers": {
					"getBalanceInEther()": "359c09b5",
					"getBalanceInGwei()": "1fbd7a1a",
					"getBalanceInWei()": "18b95fbf"
				}
			},
			"storageLayout": {
				"storage": [],
				"types": null
			},
			"userdoc": {
				"kind": "user",
				"methods": {},
				"version": 1
			}
		}
	}
}